:100000000148024B184700BF00000000000000003C
:1000100038B50C1A002C134605DD01462246184659
:10002000024DA8470346181938BD00BF0000000064
:10003000002810B506D001DA034B9847034BBDE802
:100040001040184710BD00BF000000000000000075
:10005000004B184700000000D0E901239B1A0269F9
:10006000B2EBA30F84BF00234375407D7047D0E9F6
:100070000132934218BF83600023036183820360CF
:10008000704710B5D0E901431B1BB1EBA30F3DBF77
:1000900054F821300068D218002038BF801810BDF5
:1000A000F0B5044600260127CB688BB00D68486880
:1000B0008A68089393FAA3F30493636A05A90595E4
:1000C0000690079295FAA5F590FAA0F092FAA2F29E
:1000D0000996266021616761019502900392A661ED
:1000E00003B19847044B84F8217001A89847002376
:1000F000A3610BB0F0BD00BF00000000004B18472B
:10010000000000002DE9F041DFF838800949404641
:10011000094DA84741F288360027084C3946304639
:10012000A04740460649A847304639462346BDE821
:10013000F04118470000000000000000000000002F
:10014000000000000000000010B50446006818B16F
:10015000A168024B091A9847204610BD0000000014
:1001600008B50248024B984708BD00BF00000000D8
:100170000000000008B50248024B984708BD00BFC8
:10018000000000000000000030B5836885B00393D4
:100190000023D0E900420D68CDE9014205604D68B9
:1001A00045608D688560C1E900338B6001A8024B12
:1001B000984705B030BD00BF0000000010B5D0E981
:1001C00001431B1BB1EBA30F3DBF036854F8211083
:1001D000D218002038BF505C10BD000008B5D0E92F
:1001E0000132D31AB1EBA30F15D2114B002298475D
:1001F000030612D58F2812D99F2812D9BF2812D9E9
:10020000C02807D0C12805D0C3280ED9E02828BFB0
:10021000E020C0B208BDC120FCE70020FAE7802042
:10022000F8E79020F6E7A020F4E7C220F2E700BF4D
:100230000000000008B5024B0169984708BD00BFE7
:100240000000000008B5064B9847902806D02430DF
:10025000C0B201288CBF0020012008BD0120FCE7AE
:100260000000000073B50569D0E901639B1BB5EB85
:10027000A30F044603D300234375002016E0012397
:1002800043750D4B9847D22805F1010310D1236126
:1002900056F825002268031D134401A9024413F8EF
:1002A00001099A4201F8010BF9D1019802B070BD21
:1002B000002223616275E0E70000000073B5056964
:1002C000D0E901639B1BB5EBA30F044604D30023C5
:1002D00043750020002118E0012343750E4B984719
:1002E000D32805F1010312D16946236156F8250090
:1002F000226800F108031344024413F801099A42EA
:1003000001F8010BF9D1DDE9000102B070BD002256
:1003100023616275DDE700BF0000000008B5064BF1
:100320009847802806D02230C0B201288CBF002018
:10033000012008BD0120FCE70000000008B5064BC5
:100340009847E02806D03030C0B203288CBF002088
:10035000012008BD0120FCE70000000008B5064BA5
:10036000984730B13430C0B203288CBF0020012040
:1003700008BD0120FCE700BF0000000070B5056962
:10038000D0E901639B1BB5EBA30F044603D3002305
:100390004375002011E0012343750A4B9847D1288B
:1003A00005F101030AD1236156F82520236813447F
:1003B00098785B7863F30F2000B270BD0022236150
:1003C0006275E6E70000000073B50569D0E90163D6
:1003D0009B1BB5EBA30F044604D3002343759FED8D
:1003E000100A17E0012343750E4B9847CA2805F100
:1003F000010311D1236156F825002268031D13441F
:1004000001A9024413F801099A4201F8010BF9D13C
:100410009DED010A02B070BD002223616275DEE726
:10042000000000000000000073B50569D0E9016319
:100430009B1BB5EBA30F044604D3002343759FED2C
:10044000120B18E001234375114B9847CB2805F197
:10045000010312D16946236156F82500226800F194
:1004600008031344024413F801099A4201F8010BEE
:10047000F9D19DED000B02B070BD002223616275C1
:10048000DDE700BFAFF300800000000000000000C7
:100490000000000038B50569D0E901239B1AB5EBCF
:1004A000A30F044603D30023437500200EE001236D
:1004B0004375094B9847E02805F1010307D12361F3
:1004C000002229462046054B984740B238BD0022FD
:1004D00023616275E9E700BF000000000000000032
:1004E00038B50569D0E901239B1AB5EBA30F044683
:1004F00003D30023437500200DE001234375084B0F
:1005000098476B1C024638B9236129462046054BA3
:10051000984700F07F0038BD002223616275EAE74A
:10052000000000000000000070B50569D0E901235B
:100530009B1AB5EBA30F044603D300234375002099
:100540000DE00126084B46759847CC2805EB0603BD
:1005500006D12361324629462046044B984770BD98
:10056000002223616275EAE700000000000000003D
:1005700010B5D0E901431B1BB1EBA30F37BF54F8F3
:1005800021300020D21803683FBF991848789B5C3F
:1005900040EA032010BD000070B50569D0E90123D1
:1005A0009B1AB5EBA30F044603D300234375002029
:1005B0000DE00126084B46759847CD2805EB06034C
:1005C00006D12361324629462046044B984770BD28
:1005D000002223616275EAE70000000000000000CD
:1005E00013B5D0E901431B1BB1EBA30F10D254F894
:1005F000213001681A44131D0B4401A8114413F85B
:10060000012D8B4200F8012BF9D1019802B010BDE9
:100610000020FBE738B5424B04460D4698470028BA
:1006200077D08038C3B2602B75D8602873D8DFE8E4
:1006300000F0707272727272727272727272727290
:10064000727270727272727272727272727272728C
:1006500072723F72727272727272727272727272AD
:10066000727272727272727272727272727272726A
:10067000727270727072484F565D626935397431AA
:100680003539743135393133373B3D484F56313583
:1006900031357000032038BD0420FCE70520FAE75F
:1006A0000620F8E70920F6E70A20F4E71220F2E72F
:1006B0000022294620461B4B984700F01F000130BE
:1006C000E9E7012229462046164B98470230E2E727
:1006D000012229462046144B98470330DBE70122CC
:1006E00029462046114B98470530D4E70122294678
:1006F00020460C4BF0E70122294620460A4B98473A
:100700000430C8E7012229462046084B98470630A6
:10071000C1E70120BFE70020BDE70220BBE700BF23
:1007200000000000000000000000000000000000C9
:1007300070B50569D0E901239B1AB5EBA30F0446F8
:1007400003D300234375002013E00126124B4675A6
:100750009847DC2805EB06030CD0DD2811D0902843
:1007600015D123610022294620460C4B984700F002
:100770000F0070BD3246294620462361084B98473A
:10078000F7E72361324629462046064BF7E7002269
:1007900023616275D7E700BF000000000000000081
:1007A000000000000000000038B5037D04460D463F
:1007B0001BB1D0E901239A4202D10023637538BDF1
:1007C0009B1A0269B2EBA30FF7D2054B984728603A
:1007D000637D002BF3D02046024B9847EFE700BF24
:1007E000000000000000000070B50569D0E9012399
:1007F0009B1AB5EBA30F044603D3002343750020D7
:100800000DE00126084B46759847CE2805EB0603F8
:1008100006D12361324629462046044B984770BDD5
:10082000002223616275EAE700000000000000007A
:1008300070B50569D0E901239B1AB5EBA30F0446F7
:1008400003D300234375002013E00126124B4675A5
:100850009847DE2805EB06030CD0DF2811D080284E
:1008600015D123610022294620460C4B984700F001
:100870000F0070BD3246294620462361084B984739
:10088000F7E72361324629462046064BF7E7002268
:1008900023616275D7E700BF000000000000000080
:1008A000000000000000000013B5D0E901431B1B4D
:1008B000B1EBA30F12D254F82130016868461A44F4
:1008C00002F108030B44114413F8012D8B4200F888
:1008D000012BF9D1DDE9000102B010BD002000219B
:1008E000FAE7000070B50569D0E901239B1AB5EB62
:1008F000A30F044604D300234375002001460DE0F6
:100900000126094B46759847CF2805EB060306D10B
:100910002361324629462046044B984770BD002289
:1009200023616275E9E700BF0000000000000000DD
:1009300010B5D0E901431B1BB1EBA30F3DBF03680A
:1009400054F82110D218002038BF505610BD0000B6
:1009500070B50569D0E901239B1AB5EBA30F0446D6
:1009600003D30023437500200DE00126084B467594
:100970009847D02805EB060306D123613246294665
:100980002046044B984770BD002223616275EAE758
:10099000000000000000000010B5084B0446984716
:1009A000D62808D1064B0122204621699847431CCE
:1009B0005842584110BD0020FCE700BF0000000075
:1009C0000000000010B5084B04469847D72808D10E
:1009D000064B0122204621699847431C5842584142
:1009E00010BD0020FCE700BF000000000000000078
:1009F00038B50C4B04469847C72811D12569022207
:100A000029462046084B9847013009D1074B01225F
:100A1000294620469847A0F10C035842584138BD5A
:100A20000020FCE7000000000000000000000000C3
:100A300010B5D0E901431B1BB1EBA30F3DBF036809
:100A400054F82110D218002038BF505C10BD0000AF
:100A50002DE9F043037D04460E4685B01BB1D0E975
:100A60000123934205D100236375002005B0BDE842
:100A7000F08305699B1AB5EBA30FF4D20127464B0F
:100A800047759847DA28454B6CD00BD8A02824D05E
:100A9000D9284DD00022013541496275256101A850
:100AA00098472FE0DB28F5D13D4901A898473A4601
:100AB000204621693B4B984700250746DFF8FC801C
:100AC000DFF8FC90AF4221691AD06A1D2046C0476A
:100AD000014601A8C8470135F4E7314901A8984704
:100AE000002220462169304B98470025DFF8CC8052
:100AF000DFF8CC9000F01F07EBB29F4221690FD8BE
:100B000001312161294B01A930469847284B01A8A2
:100B10009847637D002BA8D02046264B9847A5E731
:100B200001352A462046C047014601A8C847E3E7E9
:100B30001B4901A898473A46204621691A4B984715
:100B400000250746DFF87480DFF87490EBB2BB42F3
:100B50002169D5D2AA1C2046C047014601A8C84732
:100B60000135F3E70E4901A898473A462046216926
:100B7000114B984700250746DFF84080DFF840908A
:100B8000ABB29F422169BBD9EA1C2046C04701464F
:100B900001A8C8470135F3E700000000000000008D
:100BA000FE00000000000000000000000000000047
:100BB0000000000000000000000000000000000035
:100BC000000000002DE9F041037D04460E461BB1F4
:100BD000D0E90123934204D1002363750020BDE8CE
:100BE000F08107699B1AB7EBA30FF5D20123437578
:100BF0001F4B984707F1010890B11E4B022239465E
:100C00002046C4F81080984700231D46C6E900031B
:100C1000B560637D002BE1D02046174B9847DEE797
:100C20002046164B984750B1154B022239462046B4
:100C3000C4F8108098478D0801F00303E6E72046CA
:100C4000104B9847054670B103223946094B2046A0
:100C500098470B4B0546072239462046C4F81080BA
:100C600098470B46D2E703466075C4F81080CDE77D
:100C70000000000000000000000000000000000074
:100C8000000000000000000010B50446006818B124
:100C9000A168024B091A9847204610BD00000000C9
:100CA00010B50446064B00F596709847054B04F5C1
:100CB0008C709847044B04F586709847204610BD09
:100CC0000000000000000000000000002DE9F84FC7
:100CD0006FF06043D0E9008A1546AAEB0802B3EB37
:100CE000A20F074689464FEAA20402D12748284BA3
:100CF0009847C24514BF22460122A418A1EB080B55
:100D00002BD264B39C4228BF1C46224BA0009847BC
:100D10000646214B042006EB0B0198472B68BBF1DC
:100D2000000F03600BF10405AAEB090A19DD5A460E
:100D300041463046194B98477019BAF1000F00EB45
:100D40000A0503DD52464946154B9847B9684046A7
:100D5000144BA1EB0801984710E01C46D5E7264646
:100D6000D7E7BAF1000F354404DD5246494628461C
:100D70000B4B98475544B8F1000FE7D1C7E9006520
:100D800006EB8406BE60BDE8F88F00BF00010000DE
:100D90000000000000000000000000000000000053
:100DA00000000000000000002DE9F743044616464D
:100DB0000025184FDFF86080DFF860900160AE42D8
:100DC000A16801950FD8636851F8045CC91A8910AD
:100DD00020460139B8472844831B584258412075A2
:100DE00003B0BDE8F083E3688B420ED00420C8470F
:100DF0000560A3680433A360D4E90131C91A8910DE
:100E000020460139B8470544D9E7194601AA201DF3
:100E1000C047F1E7000000000000000000000000F3
:100E200010B504461046D4E900236FF000449B1A25
:100E3000E21A8A4201D2074B9847994238BF1946B5
:100E40005B1804D2A34228BF2346184610BD204693
:100E5000FCE700BF000000002DE9F047D0E9017376
:100E60009F4204468846DFF878A00AD03946012020
:100E7000D04798F800300370636801336360BDE8C1
:100E8000F087134A0121134B9847134B266881467C
:100E90009847B91B014405460120D04798F8003017
:100EA000394603702A46DFF83C803046C047394651
:100EB000421C3846C047074626B1A1683046074B5A
:100EC000891B9847C4E900574D44A560D7E700BF88
:100ED0000001000000000000000000000000000011
:100EE000000000000000000007B5044B8DF807105B
:100EF0000DF10701984703B05DF804FB0000000006
:100F00002DE9F047D0E901739F4204468846DFF897
:100F100078A00AD039460120D04798F800300370F5
:100F2000636801336360BDE8F087134A0121134B06
:100F30009847134B266881469847B91B01440546DC
:100F40000120D04798F80030394603702A46DFF870
:100F50003C803046C0473946421C3846C0470746A9
:100F600026B1A1683046074B891B9847C4E9005752
:100F70004D44A560D7E700BF00010000000000005D
:100F80000000000000000000000000000000000061
:100F900037B504460D46074BCC2198472046064BF3
:100FA0000DF107018DF807509847E3680133E360BE
:100FB00003B030BD00000000000000002DE9F04744
:100FC000D0E901739F4204468846DFF878A00AD032
:100FD00039460120D04798F8003003706368013328
:100FE0006360BDE8F087134A0121134B9847134B08
:100FF000266881469847B91B014405460120D04721
:1010000098F80030394603702A46DFF83C803046B5
:10101000C0473946421C3846C047074626B1A1683A
:101020003046074B891B9847C4E900574D44A560DB
:10103000D7E700BF00010000000000000000000032
:10104000000000000000000000000000F8B50546A8
:101050000E460324034F31192846B847013CFAD203
:10106000F8BD00BF0000000013B504460191064B17
:10107000CE2198472046054B01A99847E3680133E4
:10108000E36002B010BD00BF0000000000000000DF
:1010900070B505460C46044E0131B047214628463E
:1010A0003346BDE870401847000000000F2913B513
:1010B00004460BD861F06F018DF804100D4B01A9A7
:1010C0009847E3680133E36002B010BDB1F5803F9B
:1010D000094B08D2ADF80410DC2198472046074B95
:1010E00001A99847EDE70191DD2198472046044B7F
:1010F00001A9F6E700000000000000000000000069
:101100000000000013B50446ADF80610064BCD21D3
:1011100098472046054B0DF106019847E3680133D7
:10112000E36002B010BD00BF00000000000000003E
:1011300073B50C1E054621DB7E2C08DC8DF80440BF
:1011400001A9234B9847EB680133EB6008E0E317F4
:10115000B4F5807F73F1000204D21E4BE1B29847D0
:1011600002B070BDB4F5803F73F1000303D21A4B97
:10117000A1B29847F4E7194B9847F1E714F11E0F15
:10118000DCDA14F1800F164B06DBD0219847284695
:101190008DF8044001A9D4E714F5004F114E0BDB84
:1011A000D121ADF80440984728460DF10501B0471C
:1011B000284601A9B047C6E70194D22198470324E5
:1011C00001AB19192846B047013CF9D2BBE700BF73
:1011D000000000000000000000000000000000000F
:1011E00000000000000000002DE9F84F04460D4605
:1011F000DFF88CA001EB020BAB4501D1BDE8F88F05
:10120000D4E90183984509D041460120D0472B7885
:1012100003706368013363600135EDE7134A012110
:10122000134B20469847134B276881469847A8EBF5
:101230000701014406460120D0472B784146037040
:1012400032460D4B384698474146421C0A4B4046B1
:101250009847804627B1A1683846084BC91B984774
:10126000C4E900684E44A660D6E700BF0001000054
:10127000000000000000000000000000000000006E
:101280000000000038B50569D0E901239B1AB5EBD1
:10129000A30F044603D30023437500201CE0012361
:1012A0004375214B984728B300F13403DBB2142B6C
:1012B00035D8CC38142832D8DFE800F01F22252B8F
:1012C0000F12151831313131313131313131313184
:1012D0000B002046154B984738BD2046144BFAE7C3
:1012E0002046144BF7E72046134BF4E72046134BF8
:1012F0009847F1E72046124BEDE72046114BEAE70D
:101300002046114BE7E72046104B984720EAE07053
:10131000E2E720460E4B98470029DDDABDE70023BF
:10132000013563752561B8E700000000000000008A
:1013300000000000000000000000000000000000AD
:10134000000000000000000000000000000000009D
:101350000000000038B5037D04460D461BB1D0E9FE
:101360000123934203D100236375002038BD9B1AEB
:101370000269B2EBA30FF6D2044B98472860637D55
:10138000002BF2D02046024B9847EFE70000000008
:101390000000000038B50569D0E901239B1AB5EBC0
:1013A000A30F044604D3002343759FED2F0A21E0C9
:1013B000012343752D4B9847A8B100F13603DBB2EA
:1013C000162B4BD8CA38162848D8DFE800F03B3F28
:1013D00014171A1D2D3033364747474747474747AD
:1013E0004747474725002046214B984700EE100A03
:1013F000B8EE400A38BD20461E4BF6E720461E4B8D
:10140000F3E720461D4BF0E71D4B204698471D4B48
:10141000984700EE100AEDE720461B4B984700EE78
:10142000100AB8EEC00AE5E72046184BF6E720465A
:10143000174BF3E72046174BF0E7174B204698472A
:10144000164BE5E72046164B9847D3E72046154B49
:101450009847154B51EC100B9847DAE700230135FC
:1014600063752561A1E700BF0000000000000000D7
:10147000000000000000000000000000000000006C
:10148000000000000000000000000000000000005C
:10149000000000000000000000000000000000004C
:1014A000000000000000000000000000000000003C
:1014B00038B50569D0E901239B1AB5EBA30F0446A3
:1014C00004D3002343759FED2C0B21E001234375CA
:1014D0002B4B9847A8B100F13603DBB2162B46D848
:1014E000CA38162843D8DFE800F0363E14171A1D14
:1014F000282B2E3142424242424242424242424222
:10150000230020461F4B98471F4B984741EC100B78
:1015100038BD20461D4BF6E720461D4BF3E720461D
:101520001C4BF0E71C4B204698471C4B9847EDE7B7
:1015300020461B4B98471B4BE7E720461A4BF9E721
:1015400020461A4BF6E72046194BF3E7194B204685
:101550009847194BEAE72046184B9847184B10EE6E
:10156000100A9847D2E72046164B9847D0E7002349
:10157000013563752561A6E700000000000000004A
:10158000000000000000000000000000000000005B
:10159000000000000000000000000000000000004B
:1015A000000000000000000000000000000000003B
:1015B000000000000000000000000000000000002B
:1015C00000000000000000002DE9F7430F69D1E999
:1015D00001239B1AB7EBA30F06460D4608D3002341
:1015E0004B75C0E900338360304603B0BDE8F0833B
:1015F0004FF001080846344B81F815809847C528FC
:101600004FF0000421D0C6283BD0C42854D1C6E9ED
:101610000044B460424628462969DFF8B880C047D4
:101620000746DFF8B490E3B29F42296902D801313E
:101630002961D9E7A21C2846C0470DF107018DF8A2
:1016400007003046C8470134EDE7C6E90044B460FE
:101650004246284629691D4B98470746DFF87480A3
:10166000DFF87490A3B2BB422969E0D2E21C28469D
:10167000C0470DF107018DF807003046C847013417
:10168000F0E7C6E90044B460424628462969104B99
:1016900098470746DFF83C80DFF83C90A74229696D
:1016A000C5D0621D2846C0470DF107018DF807001F
:1016B0003046C8470134F1E701376C752F61C6E940
:1016C0000044B46090E700BF00000000000000008C
:1016D00000000000000000000000000070B5037D65
:1016E00004460E4615461BB1D0E90123934203D1AF
:1016F00000236375002070BD9B1A0269B2EBA30F33
:10170000F6D2054B98473060637D002BF2D0294616
:101710002046024B9847EEE7000000000000000062
:10172000F8B5037D06460D4614461BB1D0E90123EA
:10173000934203D1002373750020F8BD07699B1AFB
:10174000B7EBA30FF6D201234375164B984758B158
:1017500000F13403DBB2032B1FD8CD3802280FD899
:10176000DFE800F01114170030460F4B984728604F
:10177000737D002BE0D0214630460C4B9847DCE7C8
:1017800030460B4BF2E730460A4BEFE730460A4B48
:10179000ECE73046094B9847E9E7002001377075C0
:1017A0003761E4E7000000000000000000000000D6
:1017B0000000000000000000000000000000000029
:1017C000F0B5D0F80051044687B01DB90025284671
:1017D00007B0F0BD00F5947630461E4B98472A4678
:1017E000214630461C4B98470028EFD01B491C4B24
:1017F00003A8984700236A4602933046194B02A972
:101800009847054620B90025174B03A89847DEE7FF
:10181000009FA7B9029B042BF5D13046134B03AAB6
:1018200001A998470028EED0114B03A904F5867052
:101830009847019BC4F80471C4F80831E4E7022F0B
:10184000E1D1029B032BDED130460A4B03A9984716
:10185000E8E700BF0000000000000000FE000000FC
:101860000000000000000000000000000000000078
:1018700000000000000000002DE9F04F674B064615
:1018800089B008460C46984704F5867704F59478A5
:10189000C0B94FF0FF336249C4E94130C4F80001D8
:1018A000604B38469847604B40469847D4E94632EB
:1018B000934218BFC4F81C310023C4F8243109B086
:1018C000BDE8F08FD4E94632934218BFC4F81C310A
:1018D0000023C4F82431D4F8043104F58C75B3B96D
:1018E00004212846514B984701212846504B9847E0
:1018F000D4F808117E294DD84E4B8DF8101028468B
:1019000004A99847D4F824310133C4F824314FF0A6
:101910000009DFF848B106F1040AD6F8F43A39466E
:1019200099454AD3444B01A89847FE2301A9049343
:1019300005A8424B9847022128463C4B9847284629
:1019400004993B4B9847079FDDF814901F2FDFF851
:1019500010813B4E45D867F05F038DF80030694633
:101960002846344B98473A4649462846C047D4F85B
:101970002431C02101332846C4F82431B047D4F8BB
:10198000243105A80133C4F824312E4CA04701A806
:10199000A04794E7FF2904D828462B4BC9B29847A3
:1019A000B5E7B1F5803F04D22846284B89B2984765
:1019B000ADE72846264B9847A9E75046D8470AF195
:1019C0001C0A58B11C232A46414603FB0963D86907
:1019D00003689B6809B0BDE8F04F184709F1010999
:1019E0009BE7FF2F05D8D9212846B0478DF8007016
:1019F000B5E7B7F5803F09D2DA212846B0476946F6
:101A00002846144BADF800709847ACE7DB21284618
:101A1000B04769462846104B0097F5E700000000E4
:101A2000FE000000000000000000000000000000B8
:101A300000000000000000000000000000000000A6
:101A40000000000000000000000000000000000096
:101A50000000000000000000000000000000000086
:101A600000000000034670B508465418D3F804146B
:101A70008C421DD8B8B16FF003060432091A1A441B
:101A8000F61AB518A9420FD8D3F81024C3F80414D5
:101A900094428DBF0022121AC3F81024C3F81024F8
:101AA00088BFC3F8142470BD155C02F8015BE8E739
:101AB0000020F8E710B5094B0022D0F80C140446BA
:101AC00098474FF0FF33C4F808340023C4F80C34AF
:101AD000D4F81C340133C4F81C3410BD00000000DD
:101AE0002DE9F041D1F80C840546B8F1030F0E46FC
:101AF0002B4F8CB006D828462A49B84728460CB048
:101B0000BDE8F081D1F8084434F00204F3D1264B4B
:101B100006A8CDE90644CDE908440A94ADF82C4066
:101B200098474246214B311D06A8984748B9304690
:101B30001F4B984728461B49B8471E4B07A8984794
:101B4000DCE7184903A8B8476A461B4B01A906A859
:101B50000194984748B93046154B98472846114993
:101B6000B847164B03A89847E7E7009B73B9019B5A
:101B7000042BF0D1124B03AA02A906A8984700280B
:101B8000E9D028460F4B03A99847EAE7022BE2D198
:101B9000019B032BDFD10C4B03A906A89847EEE766
:101BA00000000000FE000000000000000000000037
:101BB0000000000000000000000000000000000025
:101BC00000000000000000000000000038B50C1A02
:101BD000134605D0014622461846024DA847034643
:101BE000181938BD0000000038B50C1A134605D08E
:101BF000014622461846024DA8470346181938BD2B
:101C0000000000002DE9F74F9846002308F1010A73
:101C10009A45044689461746C0E90033836002DAD4
:101C20002F48304B984713D02F4B50469847266883
:101C300005460246616830462C4B984726B1A1689C
:101C400030462B4B891B9847C4E900555544A56085
:101C50002046284B0DF1070107EB080B8DF8079084
:101C60009847BB4516D0D4E901639B1B9845DFF824
:101C700090A0DFF8909011D8324659463846D047A8
:101C800062683146424462603046C847324639464F
:101C90003846D047204603B0BDE8F08F4146164A8B
:101CA000164B20469847104B8046984731460246CF
:101CB00005462068C847594602463846D0476168FD
:101CC00002463046C8470646206818B1A168084B4E
:101CD000091A9847C4E900564544A560DAE700BFF1
:101CE000D60000000000000000000000000000001E
:101CF0000000000000000000E600000000000000FE
:101D000000000000000000002DE9F8430D69D1E952
:101D100001239B1AB5EBA30F06460C4605D30023FF
:101D20004B75C6E90033B36026E0012308464B75C6
:101D30004C4B9847C7386F1C112800F28F80DFE8A2
:101D400000F05A6F7E8D8D8D8D8D8D8D8D8D8D09D1
:101D50001E2D3C4B01222946434B20469847022228
:101D6000424B804629462046276198470123024678
:101D7000414630463E4CA0473046BDE8F88301223C
:101D80002946394B204698470222384B804629463F
:101D900020462761984702230246E9E701222946A7
:101DA000314B204698470222304B80462946204638
:101DB0002761984704230246DAE7012229462A4B85
:101DC000204698470222294B804629462046276113
:101DD000984708230246CBE701222946224B20469A
:101DE00098470222214B8046294620462761984782
:101DF00010230246BCE7012229461E4B2046984785
:101E00000222814629462046174B984703228046E6
:101E10002761164B2946204698474B460246A7E7BE
:101E200001222946144B2046984703228146294621
:101E300020460D4B9847042280462761E9E701229E
:101E400029460E4B204698470522814629462046C2
:101E5000054B9847062280462761DAE70023276171
:101E600063755EE700000000000000000000000055
:101E70000000000000000000000000000000000062
:101E80002DE9FF41874F0446B847C028054625D1B4
:101E9000257D1DB1D4E901239A4205D10023637544
:101EA000002004B0BDE8F08126699B1AB6EBA30FB1
:101EB000F4D2012320466375B847C02818BF002517
:101EC000794B06F1010618BF657526611D70637DAB
:101ED000002BE5D02046754B9847E2E7C22822D177
:101EE000237D002BDAD0D4E901239A42D6D025698C
:101EF0009B1AB5EBA30FD1D2012320466375B847D7
:101F0000C22805F101030AD1236100222946204697
:101F1000674B984700F00100664B1870D7E7002028
:101F200023616075F8E72046634B984718B920464F
:101F3000624B984720B120466149624B9847B0E711
:101F4000CA2D12D1237D002BA8D0D4E901239A42B7
:101F5000A4D09B1A2269B2EBA30F9FD25A4B204602
:101F600098475A4B83ED000AB1E7CB2D12D1237D60
:101F7000002B93D0D4E901239A428FD09B1A226977
:101F8000B2EBA30F8AD2524B20469847514B83EDB8
:101F9000000B9CE7A02D1FD005F12703DBB2022B1D
:101FA0001AD905F13C03DBB2022B26D920464A4B55
:101FB00098470646002852D00025484B20460195F8
:101FC00001A998472B46464FDFF86C813B60019B87
:101FD0009D423BD3304664E7424D2B68DA0708D474
:101FE000414B424942489847012342482B60424BAB
:101FF000984720463E49414BA0E741490B68DB0723
:1020000009D400223F4B4048C3E900229A600123D3
:102010000B60394B9847237D002B3FF43FAFD4E949
:1020200001239A423FF43AAF9B1A2269B2EBA30F05
:10203000BFF434AF214601A8344B9847314801A979
:10204000334B9847334B01A8984740E72046C04799
:1020500000283FF426AF3B6801350133B6E7204640
:102060002D4B984718B120462C492D4B66E705F1BA
:102070002C03DBB2042B61D93935EDB2022D5DD9C9
:102080002046284B984748B92046274B984728B9FF
:102090002046264B984700283FF402AF20462449AB
:1020A000244B4BE70000000000000000000000008F
:1020B0000000000000000000000000000000000020
:1020C0000000000000000000000000000000000010
:1020D0000000000000000000000000000000000000
:1020E000000000000000000000000000FE000000F2
:1020F00000000000000000000000000000000000E0
:1021000000000000000000000000000000000000CF
:1021100000000000000000000000000000000000BF
:1021200000000000000000000000000000000000AF
:1021300000000000000000000000000011490B68D2
:1021400013F0010308D1104A1048C2E9003393602C
:1021500001230B600E4B9847237D002B3FF49EAE6E
:10216000D4E901239A423FF499AE9B1A2269B2EB5B
:10217000A30FBFF493AE214601A8064B984702482F
:1021800001A95DE700000000000000000000000061
:1021900000000000000000002DE9F04FD0F80C34E2
:1021A0000546032B89B05ED9D0F81434002B6FD1CB
:1021B000D0F8107400244FF0FF38CDE90244CDE987
:1021C000044405F10409DFF800A10694ADF81C40B1
:1021D000B944D5F804243B199A4256D902A80134CF
:1021E000D04722464946304B02A898470028F0D0F5
:1021F0002E4B02A898470028EBD000236946009395
:1022000002A82B4B9847009ED6B12A4B02A89847AC
:1022100018B9294B02A8984738B3284B01A902A83E
:102220009847012EDDF804800AD00126DFF89CB023
:1022300002A8D8470028CCD0009B01369E42F7D395
:10224000B8F1020F17D814D0042E14D11FB9C5F855
:102250000884C5F80C44B8F1010F21D1C5F81074F9
:10226000C5F8144411E00027A4E706466FF0010802
:10227000DCE7032E0FD0124B3A46214628469847FA
:10228000D5F81C340133C5F81C340E4B03A898470D
:1022900009B0BDE8F08F1FB9C5F80884C5F80C4433
:1022A0003C44C5F81044F0E70000000000000000C6
:1022B000000000000000000000000000000000001E
:1022C000000000000000000000000000000000000E
:1022D0002DE9F04304680646206885B003680D4682
:1022E0005B699046984790B1D4F80434B3F5806F99
:1022F0000DD0214651F8040B02681944D768C3F584
:102300008062B847D4F804340344C4F80434204647
:10231000264B98473168264B01A898472549264BFC
:1023200001A89847044630B9DFF89890371DD6F8D1
:10233000F43A9C4207D30024204B01A8984720463A
:1023400005B0BDE8F083384601A9C84710B901348B
:102350001C37ECE7414607F10C00C8470028F6D0CF
:102360003068D0F8083433F002031CD1D0F80C14D4
:102370000A1FFC2A17D82B46C21C6C1812F8016FD2
:1023800003F8016BA342F9D14FF0FF330022C0F8EC
:102390000834C0F80C240A4B9847041E18BF0124C7
:1023A000C5F80001C8E70020F7E700BF0000000003
:1023B00000000000FE00000000000000000000001F
:1023C00000000000000000002DE9F0430546D5B0F4
:1023D00000F11008642200234046334FB8470446FA
:1023E000002831D14FF480720146304B04A8984741
:1023F0004FF0FF332E4E2F4947A8CDE94534449482
:10240000B047CDE94A44CDE94C44CDE94E44CDE94D
:1024100050445294ADF84C416C68274901A8B0472C
:102420002046264B01AA04A998470446244B01A83C
:102430009847244E404654B9B0470A200021224B09
:102440009847224B04A8984755B0BDE8F083B047A1
:1024500068681F4B04A99847DFF8789005F12408B5
:10246000642200234046B8470446D0B9459A531C1D
:1024700002D14046B047E4E7DDE94A73BB42F8D0F9
:10248000022AF6D06A68DD1BD2F80090D9F8000065
:102490002A1B036839199B6898470444A542F5D85C
:1024A000E7E7C847DCE700BF0000000000000000CD
:1024B00000000000FE0000007B00000000000000A3
:1024C000000000000000000000000000000000000C
:1024D000000000000000000038B50A4B98470A4C85
:1024E0004FF0FF334FF0FF3208480949884794F80E
:1024F0006051084B04F13800984715B12046064B4F
:10250000984738BD000000000000000038000000BF
:102510000000000000000000000000002DE9F8436A
:102520001A4B04460F469847064618B9002630460F
:10253000BDE8F883237D1BB1D4E901239A4215D16C
:102540000025657500239846DFF84C90A8453B6050
:10255000EDD02046C8470028E8D02046C8470028CC
:10256000E4D03B6808F101080133EFE79B1A2269C8
:10257000B2EBA30FE4D2064B20469847637D054695
:10258000002BDFD02046034B9847DBE7000000001C
:10259000000000000000000000000000F8B5154A2F
:1025A00013680133012B136007D1134B134A1A60D0
:1025B0000022C3E907221A765A620024104B114AFE
:1025C000C3E906441C601C6213680133012B1360CD
:1025D0000ED103260C4D0D4FC5E9004405F108004E
:1025E0004FF484620021B847013E05F58565F3D1BB
:1025F000F8BD00BF00000000000000000000000067
:1026000000000000000000000000000000000000CA
:1026100008B5064A1368013B1360054A1368013B7D
:10262000136013B90348044B984708BD000000002D
:10263000000000001C0000000000000000207047A7
:10264000704707B503688DF8071001225B680DF12C
:102650000701984703B05DF804FB0000004B1847E2
:1026600000000000004908470000000038B50C1ABF
:10267000002C134605DD014622461846024DA847A8
:102680000346181938BD00BF00000000002810B52F
:1026900006D001DA034B9847034BBDE810401847BA
:1026A00010BD00BF0000000000000000004B1847F4
:1026B0000000000010B500F130044FF0FF33204659
:1026C0004FF0FF32034988472046BDE81040024BD7
:1026D000184700BF000000000000000070B504466D
:1026E00000F508764FF0FF324FF0FF3330461349C4
:1026F0008847D4F81C32124A23B9304690474FF02D
:10270000FF3070BDD4F81C32ABB1D4F8183223447A
:102710001D7DD4F818320133C3F30803C4F818320E
:10272000D4F81C32013BC4F81C323046D4F81C32B9
:102730009047E8B2E5E74FF0FF35F6E7000000000C
:102740000000000038B5044600F508754FF0FF336F
:102750004FF0FF3228460A498847D4F81C325BB153
:10276000D4F81C3243B1D4F818321C44247D2846D6
:10277000044B9847204638BD4FF0FF34F7E700BFC1
:1027800000000000000000000A200021004B184754
:102790000000000070B5074E051D0446314628466E
:1027A000054B98470023314623602846034B984742
:1027B000204670BDFF000000000000000000000087
:1027C0000022C0E90022C0E9022202618282704731
:1027D00030B5836885B003930023D0E900420D68CB
:1027E000CDE9014205604D6845608D688560C1E9AD
:1027F00000338B6001A8024B984705B030BD00BF85
:102800000000000070B50669D0E901239B1AB6EB01
:10281000A30F044603D300234375002008E00125DD
:10282000064B45759847C0282E4402D1284626619C
:1028300070BD002326616375EFE700BF0000000054
:1028400038B5037D04460D461BB1D0E90123934200
:1028500003D100236375002038BD9B1A0269B2EBD7
:10286000A30FF6D2044B98472870637D002BF2D05B
:102870002046024B9847EFE70000000000000000F0
:102880002DE9F047D0E901739F4204468846DFF8FE
:1028900078A00AD039460120D04798F8003003705C
:1028A000636801336360BDE8F087134A0121134B6D
:1028B0009847134B266881469847B91B0144054643
:1028C0000120D04798F80030394603702A46DFF8D7
:1028D0003C803046C0473946421C3846C047074610
:1028E00026B1A1683046074B891B9847C4E90057B9
:1028F0004D44A560D7E700BF1A01000000000000AA
:1029000000000000000000000000000000000000C7
:102910002DE9F047D0E901739F4204468846DFF86D
:1029200078A00AD039460120D04798F800300370CB
:10293000636801336360BDE8F087134A0121134BDC
:102940009847134B266881469847B91B01440546B2
:102950000120D04798F80030394603702A46DFF846
:102960003C803046C0473946421C3846C04707467F
:1029700026B1A1683046074B891B9847C4E9005728
:102980004D44A560D7E700BF1A0100000000000019
:102990000000000000000000000000000000000037
:1029A0002DE9F043037D05460F4685B01BB1D0E904
:1029B0000123934205D100236B75002005B0BDE8CB
:1029C000F08306699B1AB6EBA30FF4D24FF001080F
:1029D0003A4B80F815809847C5284FF000042ED058
:1029E000C62848D0C42861D1424631462846DFF87F
:1029F000E480CDE901440394C0470646DFF8D8904F
:102A0000E3B29E4229690FD80131296138462C4B27
:102A100001A998472B4B01A898476B7D002BCCD080
:102A20002846294B9847C9E7A21C2846C0470DF104
:102A300003018DF8030001A8C8470134E0E74246CE
:102A400031462846214BCDE9014403949847064678
:102A5000DFF88080DFF88090A3B2B3422969D3D237
:102A6000E21C2846C0470DF103018DF8030001A8C0
:102A7000C8470134F0E7424631462846144BCDE9B9
:102A80000144039498470646DFF84880DFF84890F1
:102A9000A6422969B8D0621D2846C0470DF103013E
:102AA0008DF8030001A8C8470134F1E70136CDE9EC
:102AB00001446C752E610394A8E700BF000000007C
:102AC0000000000000000000000000000000000006
:102AD00000000000000000000000000007B5044BEB
:102AE0008DF807100DF10701984703B05DF804FB5E
:102AF000000000002DE9F047D0E901739F42044631
:102B00008846DFF878A00AD039460120D04798F8E7
:102B100000300370636801336360BDE8F087134AD7
:102B20000121134B9847134B266881469847B91BE0
:102B3000014405460120D04798F80030394603701B
:102B40002A46DFF83C803046C0473946421C3846AA
:102B5000C047074626B1A1683046074B891B9847F6
:102B6000C4E900574D44A560D7E700BF1A01000033
:102B70000000000000000000000000000000000055
:102B8000000000007E2913B504460AD80D4B8DF8CD
:102B900007100DF107019847E3680133E36002B0C5
:102BA00010BDFF2903D8084BC9B29847F7E7B1F524
:102BB000803F03D2054B89B29847F0E7044B984712
:102BC000EDE700BF00000000000000000000000072
:102BD0000000000073B50C1E054621DB7E2C08DCCE
:102BE0008DF8044001A9234B9847EB680133EB6053
:102BF00008E0E317B4F5807F73F1000204D21E4BA6
:102C0000E1B2984702B070BDB4F5803F73F10003A4
:102C100003D21A4BA1B29847F4E7194B9847F1E752
:102C200014F11E0FDCDA14F1800F164B06DBD021F5
:102C3000984728468DF8044001A9D4E714F5004FC1
:102C4000114E0BDBD121ADF80440984728460DF119
:102C50000501B047284601A9B047C6E70194D22133
:102C60009847032401AB19192846B047013CF9D213
:102C7000BBE700BF000000000000000000000000F3
:102C8000000000000000000000000000F7B58D68A3
:102C900004461F2D0F68174E0FD865F05F038DF89F
:102CA000043001A9144B98472A4639462046B047BC
:102CB000E3680133E36003B0F0BDFF2D0F4B06D88E
:102CC000D921984720468DF8045001A9EAE7B5F5C7
:102CD000803F08D2DA2198472046094BADF80450CE
:102CE00001A99847E0E7DB2198472046054B01956D
:102CF00001A9F6E70000000000000000000000004D
:102D00000000000000000000F8B506460F4615461A
:102D10000024AC4201D32046F8BD30682A1B03686A
:102D200039199B6898470444F3E700002DE9FF47F1
:102D30000025894698460446D0F818740421684650
:102D4000DFF874A01646CDE90055CDE90255D0470D
:102D500029466846134B9847134B394668469847AF
:102D6000124D49466846A84701216846D04741466A
:102D70006846A847DDE900156D1A2A4620460C4B27
:102D8000984785420B4A04D06846904704B0BDE896
:102D9000F087D4F8183468460133C4F818349047E3
:102DA0003760F3E7000000000000000000000000B2
:102DB0000000000000000000000000002DE9FF47B7
:102DC0000025894698460446D0F8187404216846C0
:102DD000DFF878A01646CDE90055CDE90255D04779
:102DE0002946154B68469847144D39466846A8470A
:102DF000134B49466846984701216846D0476846C4
:102E0000D8F80010A847DDE900156D1A2A462046BB
:102E10000C4B984785420C4A04D06846904704B052
:102E2000BDE8F087D4F8183468460133C4F8183484
:102E300090473760F3E700BF00000000000000008B
:102E40000000000000000000000000000000000082
:102E50002DE9F041037D04460D4616461BB1D0E92D
:102E60000123934203D10023637500202AE09B1ABB
:102E700002694FEAA308B2EBA30FF4D2124A134F30
:102E8000136813F0010302BF3B6001231360104B72
:102E90009847637D3860002BE7D023699845E2D9D5
:102EA0000C4B204698472860637D002BDDD00A4BF1
:102EB0002046291D9847637D002BD6D031462046F9
:102EC000064B9847BDE8F0810000000000000000BC
:102ED00000000000000000000000000000000000F2
:102EE00038B50569D0E901239B1AB5EBA30F044659
:102EF00003D300234375002013E001234375124BD5
:102F0000984758B100F13403DBB2032B17D8CD3802
:102F1000022807D8DFE800F0090C0F0020460B4B11
:102F2000984738BD20460A4BFAE72046094BF7E799
:102F30002046094BF4E72046084B9847F1E7002369
:102F4000013563752561D6E7000000000000000030
:102F50000000000000000000000000000000000071
:102F600038B5037D04460D461BB1D0E901239342D9
:102F700003D100236375002038BD9B1A0269B2EBB0
:102F8000A30FF6D2044B98472860637D002BF2D044
:102F90002046024B9847EFE70000000000000000C9
:102FA0002DE9F0411E46037D0446884617461BB1B5
:102FB000D0E901359D4204D1002363750020BDE8AE
:102FC000F081ED1A0369B3EBA50FF5D20F4B9847CB
:102FD000C8F80000637D002BF0D0237D002BEBD0E0
:102FE000D4E901308342E7D0C01A2369B3EBA00FC4
:102FF000E2D2074B204698473860637D002BDDD036
:1030000031462046034B9847D9E700BF0000000037
:1030100000000000000000002DE9F043D0F8146427
:1030200004460F4690461D468BB096B14A4B04A805
:1030300098474A4B04A89847D4F81034211D1944E6
:103040003246474B04A8984738B90026454B05A897
:10305000984730460BB0BDE8F0834FF00009424E70
:1030600003AB02AA01A904A8CDF80490B047064614
:103070000028EAD0039BBB42E7D1029B3B4F012BC8
:103080001BD02846FC233A4940F8043B394B98476B
:103090002046D4F81024D4F81414B847D4F81034C7
:1030A0002BB94FF0FF32C4F80C34C4F80824D4F81C
:1030B0001C340133C4F81C34C8E7019B042B05D031
:1030C0002846FC232C4940F8043BDFE72B4B04A89F
:1030D0008DF800909847C02831D19DF824301BB15D
:1030E000DDE905239A4208D100238DF825302846D2
:1030F000FC23234940F8043BC8E79B1A089AB2EB2B
:10310000A30FF1D21F4B04A898479DF825308DF8E6
:103110000000002BEBD041461B4B04A89847002829
:10312000E5D0D4F810242AB94FF0FF33C4F80C24AA
:10313000C4F808342046D4F81414B84786E76A4621
:103140002946124B04A898470028EAD12846FC23B8
:103150000F4940F8043B99E7000000000000000020
:10316000000000000000000000000000000000005F
:103170000000000000000000190000000000000036
:103180003600000000000000000000000000000009
:103190005700000038B50446006803685B6998472B
:1031A00090B1D4F80434B3F5806F0DD0214651F8B6
:1031B000040B02681944D568C3F58062A847D4F8A7
:1031C00004340344C4F804342046014B984738BD06
:1031D00000000000F8B50E46044617461D4600687C
:1031E000094B984731462B46084E3A462068B0476F
:1031F000064638B1294651F8043B44F8043F201DE7
:10320000034B98473046F8BD000000000000000066
:10321000000000002DE9F04304460D461646DFF895
:103220009490DFF8948085B000F124076422002395
:103230003846C847002831D12368CDE90000CDE9E0
:103240000200DFF8789068460321D3F80080C84771
:10325000134B684602219847124C29466846A047FE
:1032600068460121C84731466846A047DDE9001499
:10327000641A0D4B224640469847844208BFD8F84E
:103280001834684604BF0133C8F81834074B984710
:103290003846074B05B0BDE8F0431847C047C5E7BF
:1032A000000000000000000000000000000000001E
:1032B000000000000000000000000000000000000E
:1032C0002DE9F041044600F130070E4615464FF057
:1032D000FF334FF0FF3238460649884720462946DB
:1032E000054B40F8046B98473846BDE8F041034B66
:1032F000184700BF000000000000000000000000B0
:103300002DE9F043D0F8146404460F4690461D465C
:103310008BB096B14A4B04A898474A4B04A89847EB
:10332000D4F81034211D19443246474B04A898475D
:1033300038B90026454B05A8984730460BB0BDE884
:10334000F0834FF00009424E03AB02AA01A904A882
:10335000CDF80490B04706460028EAD0039BBB4254
:10336000E7D1029B3B4F012B1BD02846FC233A4957
:1033700040F8043B394B98472046D4F81024D4F841
:103380001414B847D4F810342BB94FF0FF32C4F8F6
:103390000C34C4F80824D4F81C340133C4F81C34A9
:1033A000C8E7019B042B05D02846FC232C4940F894
:1033B000043BDFE72B4B04A88DF800909847C0280A
:1033C00031D19DF824301BB1DDE905239A4208D1A3
:1033D00000238DF825302846FC23234940F8043B80
:1033E000C8E79B1A089AB2EBA30FF1D21F4B04A8AF
:1033F00098479DF825308DF80000002BEBD0414612
:103400001B4B04A898470028E5D0D4F810242AB90B
:103410004FF0FF33C4F80C24C4F808342046D4F825
:103420001414B84786E76A462946124B04A8984701
:103430000028EAD12846FC230F4940F8043B99E7CD
:10344000000000000000000000000000000000007C
:10345000000000000000000000000000000000006C
:10346000190000000000000036000000000000000D
:103470000000000000000000570000002DE9F04FA0
:10348000A3B003AF0C469046814692493846924E0F
:10349000B047DFF888A204EB0805AC4275D14FF0C5
:1034A000000A99F83532D9F810508C4C8C49CDF877
:1034B00008A0002B00F00181A94606A8B047DFF85C
:1034C000608259F810BB10A8C047243506A9CDE981
:1034D00014AA844B16A8984714225146CDE919B96D
:1034E000814B1B951CA898472197804B1CA8984797
:1034F0007F490CA8B0477F4DFF210CAA10A8A84710
:103500000CA8A047012315A9D1E8EF2F524503D1FC
:10351000C1E8E03F0028F7D13CD1DFF8E891764DD3
:10352000642200231B98C847002840F08580199822
:10353000219B006814AA16A9704DA8471B98704BD0
:103540009847DFF8B491DFF8DCA1642200231A98D1
:103550006C498847002840F08D800CA8C047199D11
:10356000DDF850B02868D04759462868DFF8B8B170
:103570000CAB02AAD847002860D11A98604B984734
:10358000614B98470DA8A047DFE7384614F8011BA8
:10359000D04782E75D490CA8B04710A8FF210CAACC
:1035A000A8470CA8A04700238DF80430012315A9D3
:1035B000D1E8EF2F002A03D1C1E8E03F0028F7D17E
:1035C0005AD1504E4C4D642200231B98B04700281E
:1035D00069D11998219B0068484D14AA16A9A847DB
:1035E0001B98474DA847DFF81091DFF840A1DFF89E
:1035F00018B1642200231A98B04700285BD10CA8A8
:10360000C047149919980CAB01AAD04700284CD098
:103610001A98A8470C9D0DA9324B09A8984729462E
:10362000344B09AA10A8984709A8A0470DA8A0479D
:10363000374B10A8984729E0A84771E70C9B0DA9C4
:1036400045F8043F281D334B98471A982C4B984750
:103650000C9D0DA9234B09A898472946254B09AA7B
:1036600010A8984709A8A0470DA8A047284B10A864
:10367000984798E7C84768E724490CA8B04710A8BE
:10368000FF211C4B0CAA98470CA8A04716A8A047DE
:1036900011A8A04706A8A047029D3846A047284683
:1036A00023B0BDE8F08FA8478DE71A98A847D84700
:1036B0000DA8A0479DE7C8479BE710A8B0473A462A
:1036C0002846154B10A9984710A8A047CDF80880A8
:1036D000E2E700BFFF000000000000000000000063
:1036E0008D0000000000000000000000000000004D
:1036F0009700000000000000000000000000000033
:10370000000000000000000000000000B500000004
:1037100000000000000000000000000000000000A9
:103720000000000000000000000000000000000099
:103730002DE9F041044600F130070E4615464FF0E2
:10374000FF334FF0FF323846064988472046294666
:10375000054B40F8046B98473846BDE8F041034BF1
:10376000184700BF0000000000000000000000003B
:1037700038B5044600F130054FF0FF3207494FF0ED
:10378000FF332846884724682846002CD4BF0024ED
:103790000124034B9847204638BD00BF00000000BD
:1037A000000000002DE9F043D0F8146404460F46F1
:1037B00090461D468BB096B14A4B04A898474A4B99
:1037C00004A89847D4F81034211D19443246474BB9
:1037D00004A8984738B90026454B05A898473046B5
:1037E0000BB0BDE8F0834FF00009424E03AB02AAD4
:1037F00001A904A8CDF80490B04706460028EAD0F5
:10380000039BBB42E7D1029B3B4F012B1BD02846B9
:10381000FC233A4940F8043B394B98472046D4F8FA
:103820001024D4F81414B847D4F810342BB94FF03E
:10383000FF32C4F80C34C4F80824D4F81C34013323
:10384000C4F81C34C8E7019B042B05D02846FC2390
:103850002C4940F8043BDFE72B4B04A88DF800907F
:103860009847C02831D19DF824301BB1DDE90523EC
:103870009A4208D100238DF825302846FC2323499D
:1038800040F8043BC8E79B1A089AB2EBA30FF1D2A9
:103890001F4B04A898479DF825308DF80000002B99
:1038A000EBD041461B4B04A898470028E5D0D4F83C
:1038B00010242AB94FF0FF33C4F80C24C4F808349C
:1038C0002046D4F81414B84786E76A462946124BB6
:1038D00004A898470028EAD12846FC230F4940F85D
:1038E000043B99E700000000000000000000000019
:1038F00000000000000000000000000000000000C8
:103900000000000019000000000000003600000068
:103910000000000000000000000000005700000050
:103920002DE9F04F012204468A4689B000F11403C4
:10393000D3E8EF1F002903D1C3E8E02F0028F7D117
:103940000CBF1546002534D1DFF80081324D6422CA
:103950000023E06AC04700283BD1606A636C0068BE
:1039600004F1100204F118012C4DA8472C4EE06A16
:10397000B047DFF8A490DFF8D8B064220023A06A33
:10398000C047002845D1274B04A89847656A276996
:103990002868D84739465246234F286804ABB847B1
:1039A000224FC0B9A06AB047214B984705A8B84735
:1039B000E3E72049204B04A89847FF2120461F4BEE
:1039C00004AA9847194B04A89847284609B0BDE8AF
:1039D000F08FA847BBE7049B05A945F8043F281DC5
:1039E000174B9847A06AB047049D164B05A901A83C
:1039F00098472946114B01AA2046984701A8B84785
:103A000005A8B8472046104B984780F00100C0B287
:103A1000DCE7C847B1E700BF00000000000000007D
:103A20000000000000000000000000000000000096
:103A300000000000B50000000000000000000000D1
:103A40000000000000000000000000000000000076
:103A5000000000002DE9F04FA3B00646039179B1B4
:103A600000F5087B4FF0FF334FF0FF325846DFF888
:103A7000D081C04796F834322BB95846604B9847EE
:103A800023B0BDE8F08F002435695E495E4F09A878
:103A9000CDE906440894B8472B4653F8102BDFF8BD
:103AA000A49110A8CDE90123DFF89CA1C84709A97A
:103AB00016A8CDE91444D047019A029B19921A9393
:103AC00014222146514B24351CA81B95984703AB63
:103AD00021934F4B1CA898474E490CA8B8474E4D10
:103AE000FF210CAA10A8A8474C4C0CA8A04709A875
:103AF000A0474B4B06A910A89847002846D1584626
:103B00003F4EB04700238DF81430012315A9D1E8AA
:103B1000EF2F002A03D1C1E8E03F0028F7D101963A
:103B200050D1404F642200231B98C04700285BD12E
:103B30001998219B00683C4F14AA16A9B8471B98F6
:103B40002F4FB847DFF8DCB0642200231A98C04733
:103B5000002853D10CA8C847344E149919980CABBF
:103B600005AAB047002841D0019B1A9898470C9E9F
:103B70000DA909A8D047314609AA10A8A84709A845
:103B8000A0470DA8A0472A4B10A824E0DDE9062194
:103B90008A42B4D0D6F81C32B3F5007F10D0D6F8E4
:103BA0001432107833441875D6F814320133C3F345
:103BB0000803C6F81432D6F81C320133C6F81C329A
:103BC0000132E5E71B490CA8B84710A8FF210CAA51
:103BD000A847124B0CA8984716A8A04711A8A047C1
:103BE000154B06A898474BE7B8479BE71A98B84784
:103BF000124B9847094B0DA89847A5E7D847A3E76C
:103C00000000000084000000000000000000000030
:103C1000000000009700000000000000000000000D
:103C20000000000000000000000000000000000094
:103C300000000000B50000000000000000000000CF
:103C400000000000000000000000000038B504463D
:103C500000F508750B494FF0FF324FF0FF3328464F
:103C60008847D4F81C12C1F50071002902DD2046F6
:103C7000054B9847D4F81C422846044B98472046E9
:103C800038BD00BF00000000000000000000000080
:103C9000F8B52E4A2E4E13680133012B136006D15E
:103CA00000222C4BC3E907221E601A765A620024B8
:103CB000294F142221462948C6E90044F460B84738
:103CC000142221462648B847142221462548B847E1
:103CD0004FF4847221462448C6E91344B847234B65
:103CE000234DB3604FF47A73AB60224B4FF40072F4
:103CF000214605F114002B6086F860416C602E614E
:103D0000B8471422214605F50870C5F81442C5F8D5
:103D10001842C5F81C42B8474FF48073164AA5F8FC
:103D2000343213680133012B13600DD10326134D78
:103D3000C5E9004405F108004FF484620021B8474A
:103D4000013E05F58565F3D1F8BD00BF0000000018
:103D50000000000000000000000000001000000053
:103D6000240000003800000058000000000000009F
:103D7000000000000800000000000000000000003B
:103D800008B5064A1368013B1360054A1368013BF6
:103D9000136013B90348044B984708BD00000000A6
:103DA000000000001C0000000000000000230A6862
:103DB00002604A68C1E9003342608A688B608260B1
:103DC0007047000010B50446006808B1014B9847E1
:103DD000204610BD0000000010B50446006808B180
:103DE000034B98470023C4E90133236010BD00BF93
:103DF0000000000038B504460D460068034B013151
:103E0000984710B1C4E90005012038BD000000004A
:103E100010B50368044613B143688B4207D22046AD
:103E2000044B984720B1A3680BB922681370012096
:103E300010BD00BF0000000070B50B4B0E461146D0
:103E400004461546984720B92046084B9847204617
:103E500070BD2A463146064B2068A5609847002170
:103E60002268A368D154F2E70000000000000000BF
:103E70000000000038B5002304460D46C0E90033B9
:103E8000836039B10846044B984729460246034BE4
:103E900020469847204638BD000000000000000082
:103EA000884238B505460C460CD0074B0068984749
:103EB00023682B60A368AB6063686B600023C4E970
:103EC0000133236038BD00BF00000000884210B5F8
:103ED0000B46044604D0096821B19A68034B984701
:103EE000204610BD024B9847FAE700BF00000000D3
:103EF00000000000002310B50446C0E900338360D1
:103F0000014B9847204610BD0000000010B5044644
:103F1000014B9847204610BD0000000038B505460B
:103F20000C4649B10846064B984721460246054BC8
:103F300028469847284638BD034B9847FAE700BF04
:103F4000000000000000000000000000F8B504467A
:103F500016460F46856809B90020F8BD82B11544A0
:103F60002946084B98470028F6D0A36820683246B7
:103F700018443946044B984700222368A5605A55D7
:103F80000120EAE7000000000000000007B5054B33
:103F90008DF8071001220DF10701984703B05DF875
:103FA00004FB00BF00000000034600680A460968E1
:103FB00028B911B1936843B919460846704739B911
:103FC00099680029F9D00178F7E709784942F4E7C0
:103FD000004B18470000000008B582688B689A42C1
:103FE00005D1044B9847B0FA80F0400908BD002085
:103FF000FCE700BF0000000008B582682AB959B18B
:104000000878B0FA80F0400908BD006809B9007866
:10401000F7E7024B9847F4E70120F5E700000000BE
:10402000004B184700000000004B1847000000003C
:10403000004B184700000000004B1847000000002C
:10404000004B184700000000004B1847000000001C
:10405000004B184700000000004B1847000000000C
:10406000004B18470000000008B5014B984700BFFF
:10407000000000007047000038B5054B9847054B1D
:104080009847054B9847054D054CA847A047FCE7C6
:104090000000000000000000000000000000000020
:1040A00000000000012838BF0120014B184700BF65
:1040B00000000000004B1847000000000846704751
:1040C000004B1847000000002DE9F04F154C164E2C
:1040D000164FDFF85C8089B02546B54204F1300404
:1040E00002D309B0BDE8F08F14ED027B54E90C0156
:1040F00054E90A2354E908CE54E9069A54F810BC4E
:104100008DED067BCDE903ABCDE901E9CDF800C02B
:10411000B84754F8300C54F80C1CC04754F8303CE5
:104120005D65D9E70000000000000000000000000D
:10413000000000008368DB6903B11847704703681B
:1041400040F213421B6A18470069836903B118479C
:10415000704707B503688DF8071001225B680DF101
:104160000701984703B05DF804FB01207047006920
:1041700043691847004B18470000000000490847F2
:104180000000000037B5044600F1D4054FF0FF32BF
:104190004FF0FF3328460A4988470A4B04F1800054
:1041A00001220DF1070198470446074B284698471E
:1041B0001CB19DF8070003B030BD4FF0FF30FAE7A7
:1041C00000000000000000000000000037B50446B9
:1041D00000F1D4054FF0FF324FF0FF3328460A4973
:1041E00088470A4B04F1800001220DF1070198472E
:1041F0000446074B284698471CB19DF8070003B0BA
:1042000030BD4FF0FF30FAE7000000000000000072
:104210000000000038B5044600F16805284608494A
:104220004FF0FF324FF0FF338847228C238B646AB4
:104230009B1A9BB22846E41A024B9847204638BD89
:10424000000000000000000070B5054600F1D40633
:104250004FF0FF32304607494FF0FF338847B5F83B
:104260008A30B5F886403046E41AA4B2024B98472B
:10427000204670BD0000000000000000002337B59C
:104280008DF8073002F00F03012B0446009147D050
:10429000991E4B424B418DF8043002F0F003202B65
:1042A00040D0302B0CBF0323012302F47062B2F51F
:1042B000007F8DF8053037D0B2F5407F36D0B2F5AB
:1042C000807F0CBF002303238DF80630236820462F
:1042D000DB6A984720698368DB680BB169469847B9
:1042E0002069836823B19B6C13B12246104998471B
:1042F00004F1D4054FF0FF3228460E494FF0FF334A
:10430000884700232846C4E92133C4F88C300A4B7F
:104310009847206983689B6A03B1984703B030BD12
:104320000223B8E70223C0E70123CDE70223CBE74E
:1043300000000000000000000000000038B5044646
:10434000084D628BE38B9A4207D1064D2069836842
:104350001B6B0BB1984710B138BDA847F1E7A847D0
:10436000F4E700BF000000002DE9F84F044688463E
:1043700015460026DFF85890DFF858B004F16807BA
:104380004FF0FF324FF0FF333846C847AA1B08EB07
:1043900006010C4B04F11400984782463846D84772
:1043A0005644BAF1000F04D12069074B9847074BD8
:1043B0009847B542E2D12069034B98472846BDE8AB
:1043C000F88F00BF000000000000000000000000A7
:1043D00000000000000000002DE9F34704460069DA
:1043E00083685B6C43BB04F1D40600220023304693
:1043F0002F4DA8472F4F206983685B6B13BB206943
:1044000083689B6913BB304604F168072A4EB047A6
:10441000002200233846A847628BE38B9A4204D1DE
:10442000206983681B6A03B19847DFF89090DFF832
:1044300090A004F114081BE098470028D3D102B0E3
:10444000BDE8F08798470028D9D1DCE70822694603
:104450009847021ED7DD082AA8BF0822694604F142
:104460008000B8470028C6DACDE769464046D04705
:10447000206983685B6ABBB9658BE38BED1AADB2CB
:104480007DB1082D28BF082569462A464046C84701
:10449000206983685B6923B12A4669469847021EF2
:1044A000E3DA3846B047CAE798470028E4D1F8E78E
:1044B00000000000000000000000000000000000FC
:1044C000000000000846014B184700BF0000000034
:1044D00010B504460122074B11465430984704F1A9
:1044E000140323600023C4E90133E3604023236104
:1044F000204610BD000000002DE9F0414FF00008FB
:104500004FF47A770D4C0E4B0E4E0F4D04F1140004
:104510002361C4E901872660A84704F180000B4CA1
:10452000A8470B4B04F11400C4E9018726602361FE
:10453000A84704F18000A847BDE8F0810000000012
:104540000000000008000000000000000000000063
:1045500000000000004B1847000000004621002228
:10456000FF20074B01399A6383F83C0083F83D2014
:1045700083F83E2083F83F2003F14003F2D17047D7
:10458000B012000008B5FFF7FEFF08B5FFF7FEFF09
:1000000000000000000000000000000000000000F0
:1000100000000000000000000000000000000000E0
:1000200000000000000000000000000000000000D0
:1000300000000000000000000000000000000000C0
:1000400000000000000000000000000000000000B0
:0C005000000000000000000000000000A4
:10005C00556E657870656374656420726573706F36
:10006C006E7365207479706500556E657870656384
:10007C007465642052504320726573706F6E7365A3
:10008C002073697A6500526573756C74206E6F7499
:10009C00207061727361626C652028636865636BA4
:1000AC0020747970652900525043204572726F722A
:1000BC00206E6F74207061727361626C65202863AE
:1000CC006865636B207479706529005F5F73616686
:1000DC00655F5F006D6F6E2F72656164006D6F6E92
:1000EC002F777269746500546869732063616C6C56
:1000FC00206973206E6F7420796574206578656350
:10010C007574656400546869732063616C6C206954
:10011C0073206E6F206C6F6E6765722061766169FB
:10012C006C61626C6500766563746F723A3A7265E5
:10013C00736572766500766563746F723A3A5F4DDB
:10014C005F72616E67655F696E7365727400000043
:10015C00766563746F723A3A5F4D5F7265616C6C71
:10016C006F635F696E7365727400766563746F722A
:10017C003A3A5F4D5F7265616C6C6F635F696E7369
:10018C006572740053797374656D204865617020D5
:10019C00656E643A2025700A0053797374656D207E
:1001AC00486561702073746172743A2025700A007E
:1001BC00536B657463682048656170207374617259
:1001CC00743A2025702C2073697A652025700A00FA
:0501DC006D61696E0079
:104590001119C30073E4C5CC000390310000000082
:1045A000E80300000BB28101E6C26B980006201BF5
:0845B00000000000E803000018
:0869E800800100000000000026
:1069F0000000000000000000000000000000000097
:086A000000000000000000008E
:040000030000407940
:00000001FF
